{
  "_format": "hh-sol-artifact-1",
  "contractName": "PetitionSystem",
  "sourceName": "contracts/PetitionSystem.sol",
  "abi": [
    {
      "anonymous": false,
      "inputs": [
        {
          "indexed": true,
          "internalType": "uint256",
          "name": "petitionId",
          "type": "uint256"
        },
        {
          "indexed": true,
          "internalType": "address",
          "name": "creator",
          "type": "address"
        },
        {
          "indexed": false,
          "internalType": "uint256",
          "name": "timestamp",
          "type": "uint256"
        }
      ],
      "name": "PetitionClosed",
      "type": "event"
    },
    {
      "anonymous": false,
      "inputs": [
        {
          "indexed": true,
          "internalType": "uint256",
          "name": "petitionId",
          "type": "uint256"
        },
        {
          "indexed": true,
          "internalType": "address",
          "name": "creator",
          "type": "address"
        },
        {
          "indexed": false,
          "internalType": "string",
          "name": "title",
          "type": "string"
        },
        {
          "indexed": false,
          "internalType": "uint256",
          "name": "timestamp",
          "type": "uint256"
        }
      ],
      "name": "PetitionCreated",
      "type": "event"
    },
    {
      "anonymous": false,
      "inputs": [
        {
          "indexed": true,
          "internalType": "uint256",
          "name": "petitionId",
          "type": "uint256"
        },
        {
          "indexed": true,
          "internalType": "address",
          "name": "signer",
          "type": "address"
        },
        {
          "indexed": false,
          "internalType": "uint256",
          "name": "newCount",
          "type": "uint256"
        },
        {
          "indexed": false,
          "internalType": "uint256",
          "name": "timestamp",
          "type": "uint256"
        }
      ],
      "name": "PetitionSigned",
      "type": "event"
    },
    {
      "inputs": [
        {
          "internalType": "uint256",
          "name": "_petitionId",
          "type": "uint256"
        }
      ],
      "name": "closePetition",
      "outputs": [],
      "stateMutability": "nonpayable",
      "type": "function"
    },
    {
      "inputs": [
        {
          "internalType": "string",
          "name": "_title",
          "type": "string"
        },
        {
          "internalType": "string",
          "name": "_description",
          "type": "string"
        }
      ],
      "name": "createPetition",
      "outputs": [
        {
          "internalType": "uint256",
          "name": "",
          "type": "uint256"
        }
      ],
      "stateMutability": "nonpayable",
      "type": "function"
    },
    {
      "inputs": [],
      "name": "getAllPetitionIds",
      "outputs": [
        {
          "internalType": "uint256[]",
          "name": "",
          "type": "uint256[]"
        }
      ],
      "stateMutability": "view",
      "type": "function"
    },
    {
      "inputs": [
        {
          "internalType": "uint256",
          "name": "_petitionId",
          "type": "uint256"
        }
      ],
      "name": "getPetition",
      "outputs": [
        {
          "components": [
            {
              "internalType": "uint256",
              "name": "id",
              "type": "uint256"
            },
            {
              "internalType": "string",
              "name": "title",
              "type": "string"
            },
            {
              "internalType": "string",
              "name": "description",
              "type": "string"
            },
            {
              "internalType": "address",
              "name": "creator",
              "type": "address"
            },
            {
              "internalType": "uint256",
              "name": "signatureCount",
              "type": "uint256"
            },
            {
              "internalType": "uint256",
              "name": "createdAt",
              "type": "uint256"
            },
            {
              "internalType": "bool",
              "name": "isActive",
              "type": "bool"
            }
          ],
          "internalType": "struct PetitionSystem.Petition",
          "name": "",
          "type": "tuple"
        }
      ],
      "stateMutability": "view",
      "type": "function"
    },
    {
      "inputs": [],
      "name": "getTotalPetitions",
      "outputs": [
        {
          "internalType": "uint256",
          "name": "",
          "type": "uint256"
        }
      ],
      "stateMutability": "view",
      "type": "function"
    },
    {
      "inputs": [
        {
          "internalType": "uint256",
          "name": "_petitionId",
          "type": "uint256"
        },
        {
          "internalType": "address",
          "name": "_wallet",
          "type": "address"
        }
      ],
      "name": "hasSignedPetition",
      "outputs": [
        {
          "internalType": "bool",
          "name": "",
          "type": "bool"
        }
      ],
      "stateMutability": "view",
      "type": "function"
    },
    {
      "inputs": [
        {
          "internalType": "uint256",
          "name": "",
          "type": "uint256"
        }
      ],
      "name": "petitions",
      "outputs": [
        {
          "internalType": "uint256",
          "name": "id",
          "type": "uint256"
        },
        {
          "internalType": "string",
          "name": "title",
          "type": "string"
        },
        {
          "internalType": "string",
          "name": "description",
          "type": "string"
        },
        {
          "internalType": "address",
          "name": "creator",
          "type": "address"
        },
        {
          "internalType": "uint256",
          "name": "signatureCount",
          "type": "uint256"
        },
        {
          "internalType": "uint256",
          "name": "createdAt",
          "type": "uint256"
        },
        {
          "internalType": "bool",
          "name": "isActive",
          "type": "bool"
        }
      ],
      "stateMutability": "view",
      "type": "function"
    },
    {
      "inputs": [
        {
          "internalType": "uint256",
          "name": "_petitionId",
          "type": "uint256"
        }
      ],
      "name": "signPetition",
      "outputs": [],
      "stateMutability": "nonpayable",
      "type": "function"
    }
  ],
  "bytecode": "0x608060405234801561001057600080fd5b50610f99806100206000396000f3fe608060405234801561001057600080fd5b50600436106100885760003560e01c8063b9ceb3551161005b578063b9ceb35514610105578063be7af16b1461011a578063dcad018014610163578063f345a9971461017857600080fd5b80630c90ce421461008d5780633ad50ded146100b657806341a51d13146100dc57806372fa1301146100fd575b600080fd5b6100a061009b366004610b00565b61018b565b6040516100ad9190610b5f565b60405180910390f35b6100c96100c4366004610b00565b61038e565b6040516100ad9796959493929190610be2565b6100ef6100ea366004610c88565b6104e6565b6040519081526020016100ad565b6000546100ef565b61010d610814565b6040516100ad9190610cf4565b610153610128366004610d38565b60009182526002602090815260408084206001600160a01b0393909316845291905290205460ff1690565b60405190151581526020016100ad565b610176610171366004610b00565b61086c565b005b610176610186366004610b00565b6109db565b6101d66040518060e0016040528060008152602001606081526020016060815260200160006001600160a01b0316815260200160008152602001600081526020016000151581525090565b600082815260016020526040812054900361020c5760405162461bcd60e51b815260040161020390610d74565b60405180910390fd5b600082815260016020818152604092839020835160e081019094528054845291820180549184019161023d90610da4565b80601f016020809104026020016040519081016040528092919081815260200182805461026990610da4565b80156102b65780601f1061028b576101008083540402835291602001916102b6565b820191906000526020600020905b81548152906001019060200180831161029957829003601f168201915b505050505081526020016002820180546102cf90610da4565b80601f01602080910402602001604051908101604052809291908181526020018280546102fb90610da4565b80156103485780601f1061031d57610100808354040283529160200191610348565b820191906000526020600020905b81548152906001019060200180831161032b57829003601f168201915b505050918352505060038201546001600160a01b03166020820152600482015460408201526005820154606082015260069091015460ff16151560809091015292915050565b6001602081905260009182526040909120805491810180546103af90610da4565b80601f01602080910402602001604051908101604052809291908181526020018280546103db90610da4565b80156104285780601f106103fd57610100808354040283529160200191610428565b820191906000526020600020905b81548152906001019060200180831161040b57829003601f168201915b50505050509080600201805461043d90610da4565b80601f016020809104026020016040519081016040528092919081815260200182805461046990610da4565b80156104b65780601f1061048b576101008083540402835291602001916104b6565b820191906000526020600020905b81548152906001019060200180831161049957829003601f168201915b5050505060038301546004840154600585015460069095015493946001600160a01b039092169390925060ff1687565b6000836105355760405162461bcd60e51b815260206004820152601f60248201527f4a7564756c2070657469736920746964616b20626f6c6568206b6f736f6e67006044820152606401610203565b60c88411156105975760405162461bcd60e51b815260206004820152602860248201527f4a7564756c207465726c616c752070616e6a616e6720286d617820323030206b6044820152676172616b7465722960c01b6064820152608401610203565b816105e45760405162461bcd60e51b815260206004820152601c60248201527f4465736b726970736920746964616b20626f6c6568206b6f736f6e67000000006044820152606401610203565b6103e882111561064c5760405162461bcd60e51b815260206004820152602d60248201527f4465736b7269707369207465726c616c752070616e6a616e6720286d6178203160448201526c303030206b6172616b7465722960981b6064820152608401610203565b60008054908061065b83610dde565b91905055506000805490506040518060e0016040528082815260200187878080601f016020809104026020016040519081016040528093929190818152602001838380828437600092019190915250505090825250604080516020601f88018190048102820181019092528681529181019190879087908190840183828082843760009201829052509385525050336020808501919091526040808501849052426060860152600160809095018590528684528482529092208451815591840151919283019161072c915082610e6a565b50604082015160028201906107419082610e6a565b506060820151600382810180546001600160a01b0319166001600160a01b03909316929092179091556080830151600483015560a0830151600583015560c0909201516006909101805460ff191691151591909117905580546001810182556000919091527fc2575a0e9e593c00f959f8c92f12db2869c3395a3b0502d05e2516446f71f85b01819055604051339082907f7aca0a0d608ec3f8b86a928e5106f8302ae571fe35bbad28b6f64bb54036c5bb90610803908a908a904290610f2a565b60405180910390a395945050505050565b6060600380548060200260200160405190810160405280929190818152602001828054801561086257602002820191906000526020600020905b81548152602001906001019080831161084e575b5050505050905090565b6000818152600160205260408120805490910361089b5760405162461bcd60e51b815260040161020390610d74565b600681015460ff166108e65760405162461bcd60e51b8152602060048201526014602482015273050657469736920737564616820646974757475760641b6044820152606401610203565b600082815260026020908152604080832033845290915290205460ff161561095c5760405162461bcd60e51b8152602060048201526024808201527f416e6461207375646168206d656e616e646174616e67616e692070657469736960448201526320696e6960e01b6064820152608401610203565b60008281526002602090815260408083203384529091528120805460ff191660011790556004820180549161099083610dde565b9091555050600481015460408051918252426020830152339184917f6657bfa619ac692383554175e18467de5fd8744f3ba4e6b4b47c9c9d694d540191015b60405180910390a35050565b60008181526001602052604081208054909103610a0a5760405162461bcd60e51b815260040161020390610d74565b60038101546001600160a01b03163314610a755760405162461bcd60e51b815260206004820152602660248201527f48616e79612070656d62756174207065746973692079616e672062697361206d6044820152650656e757475760d41b6064820152608401610203565b600681015460ff16610ac05760405162461bcd60e51b8152602060048201526014602482015273050657469736920737564616820646974757475760641b6044820152606401610203565b60068101805460ff19169055604051428152339083907f5271d4689543a935ae4a48e6533b863e6ddeee1018271fb14deb7473f53c16ae906020016109cf565b600060208284031215610b1257600080fd5b5035919050565b6000815180845260005b81811015610b3f57602081850181015186830182015201610b23565b506000602082860101526020601f19601f83011685010191505092915050565b60208152815160208201526000602083015160e06040840152610b86610100840182610b19565b90506040840151601f19848303016060850152610ba38282610b19565b91505060018060a01b036060850151166080840152608084015160a084015260a084015160c084015260c0840151151560e08401528091505092915050565b87815260e060208201526000610bfb60e0830189610b19565b8281036040840152610c0d8189610b19565b6001600160a01b039790971660608401525050608081019390935260a0830191909152151560c0909101529392505050565b60008083601f840112610c5157600080fd5b50813567ffffffffffffffff811115610c6957600080fd5b602083019150836020828501011115610c8157600080fd5b9250929050565b60008060008060408587031215610c9e57600080fd5b843567ffffffffffffffff80821115610cb657600080fd5b610cc288838901610c3f565b90965094506020870135915080821115610cdb57600080fd5b50610ce887828801610c3f565b95989497509550505050565b6020808252825182820181905260009190848201906040850190845b81811015610d2c57835183529284019291840191600101610d10565b50909695505050505050565b60008060408385031215610d4b57600080fd5b8235915060208301356001600160a01b0381168114610d6957600080fd5b809150509250929050565b6020808252601690820152752832ba34b9b4903a34b230b5903234ba32b6bab5b0b760511b604082015260600190565b600181811c90821680610db857607f821691505b602082108103610dd857634e487b7160e01b600052602260045260246000fd5b50919050565b600060018201610dfe57634e487b7160e01b600052601160045260246000fd5b5060010190565b634e487b7160e01b600052604160045260246000fd5b601f821115610e6557600081815260208120601f850160051c81016020861015610e425750805b601f850160051c820191505b81811015610e6157828155600101610e4e565b5050505b505050565b815167ffffffffffffffff811115610e8457610e84610e05565b610e9881610e928454610da4565b84610e1b565b602080601f831160018114610ecd5760008415610eb55750858301515b600019600386901b1c1916600185901b178555610e61565b600085815260208120601f198616915b82811015610efc57888601518255948401946001909101908401610edd565b5085821015610f1a5787850151600019600388901b60f8161c191681555b5050505050600190811b01905550565b604081528260408201528284606083013760006060848301015260006060601f19601f860116830101905082602083015294935050505056fea26469706673582212200ed168755255da821e350c04708a592059d24e1a7ef5582d45637436853580c564736f6c63430008130033",
  "linkReferences": {},
  "deployedLinkReferences": {}
}